:03000000027C3F40
:0C7C3F00787FE4F6D8FD7581CE021D0DA3
:0280000000007E
:107A0C0010A040A010A840A8FFA0C29FC7209DAB0B
:0E7A1C00C7D81F156252209FC7D8BFAB60525B
:104A9F00E490086FF0127BF69009EFE07002800649
:104AAF001246C2EF7003125886E4F55174F5255182
:104ABF00F582E4340AF5837480F00551E551B411A1
:104ACF00EBE4F551900841F0F522F5237F45126D87
:104ADF00F4E4FFFE125D7BEF6006D201C218800482
:104AEF00C201D2187F4E126DF4E4FFFE125D7BEF10
:104AFF006006D21DC21C8004C21DD21CC20FC21E72
:104B0F00E4F524F525F526F534F52CF52DF532F5DC
:104B1F0033F530F531F52EF52F900845F090084616
:104B2F00F0900A19F0900847F0900848F09008426A
:104B3F00F0C208C209F537F538900849F0F54EF57F
:104B4F004FC215900A167407F0E4900A1BF0900AF2
:104B5F0023F0A3F0900A1AE09004DCF0E54E54E045
:104B6F00440CF54F9000107401F09002E0E4F0A3B4
:104B7F00F0A3F0A3F0F52BF52AC206C207F529C260
:104B8F00179009E3F0A3F09009F9F0A37404F07FF4
:104B9F0043126DF47F017E00125D7B900A11EFF0DE
:104BAF007F027E00125D7B9009A2EFF07F107E00E6
:104BBF00125093900A12EEF0A3EFF07F127E0012C4
:0B4BCF005093900A14EEF0A3EFF022C8
:106A38007F007E088F828E83E4F00FBF00010EBEB8
:106A48000BF2BF14EFE4F520F5219009EFF0900860
:106A580092F0A3F0C240C2469009F2F01275AEE47B
:106A6800900A17F0A3F0F537F538900849F0FF12AF
:106A78007AF0C205E4900A0DF0F552F553900A2A0F
:106A880004F0E4F5549009E774FFF09009E5F090FC
:076A980009E6F0C245C2440B
:016A9F0022D4
:10282900E4F52DF510E51025E0240CF582E4347A61
:10283900F583E4939009F0F0E51025E0240DF58285
:10284900E4347AF583E4939009E8F0E510B40411CF
:10285900052DE52DD3940340037F0022E4F5108074
:1028690002051012654FEF7004C20A80B87B017A25
:102879000179007D087F057E001272157B017A01BE
:1028890079007D017F3F7E00127215EF60979001FC
:1028990000E0F52C9005017418F0A3E4F090050010
:1028A90004F0FB7A0179007D187F407E00127215D1
:1028B900EF700302282E900100E0644560030228AE
:1028C9002EA3E06444600302282E900116E054BF51
:1028D900F52F9009F0E0FFD394105015E52F64040B
:1028E9006030E52F6402602AE52F64016024022824
:1028F9002EEFC39440401BE52F64086015E52F6453
:1029090010600FE52F64206009E52F6480600302E1
:10291900282EE52CF4600B900503E0652C6003027A
:10292900282E9009FDE4F0A37458F0900102E0FF0D
:10293900A3E09009FFCFF0A3EFF0900104E0FFA31B
:10294900E0900A01CFF0A3EFF0900106E0FFA3E0C9
:10295900900A03CFF0A3EFF0900108E0FFA3E09005
:102969000A05CFF0A3EFF090010AE0FFA3E0900A77
:1029790007CFF0A3EFF090010CE0FFA3E0900A0964
:10298900CFF0A3EFF090010EE0FFA3E0900A0BCF88
:10299900F0A3EFF09009FFE0B4FF0CA3E0B4FF0748
:1029A900E49009FFF0A3F09009FFE0FAA3E0FB909F
:1029B9000843EAF0A3EBF0900110E0F530A3E0F54D
:1029C90031900112E0F52EA3E0F52F900844E0259F
:1029D9002FFF900843E0352ECFC39531CF95309026
:1029E9000890F0A3EFF0900114E0F52EA3E0F52F85
:1029F9002531900A0FF0E530352E900A0EF090013E
:102A090016E030E6047F0180027F02900A2AEFF087
:102A1900900116E054BFF0E0C39480500CE025E02B
:102A2900900892F0A3E4F08011900116E0B4800AB6
:102A390090089274FFF0A374E0F0900117E030E081
:102A490004D20B8002C20B900117E030E104D20CD2
:102A59008002C20CE49009EFF0900117E030E2081F
:102A69009009EF7404F0800D900117E030E30690AF
:102A790009EF7408F0300C149009FDE0FEA3E0FFA3
:102A8900E4FDFC1263BFEF700302282E300B2520F2
:102A99000C16900843E0FEA3E0FFC3900891E09F65
:102AA900F0900890E09E801F9008431263B2EF7087
:102AB9000302282E900A00E0252FFE9009FFE03539
:0A2AC9002E9009FBF0A3CEF07F0170
:012AD30022E0
:107AF000900545E0BF010854F9F0E04401F022543C
:077B0000FEF0E04406F02254
:1078EF00900A35EEF0A3EFF0E4FF127AF0900A362B
:1078FF00E0900548F0900A35E0900549F00F027AC4
:01790F00F087
:1068F900E0FAA3E02400F974803AFA7B01751901E2
:066909008B168A178918A5
:10690F00900A37EEF0A3EFF0A3ECF0A3EDF0E090D8
:10691F000501F0900A39E0900502F0E519900500A5
:10692F00B401057413F080037415F0900A39E0FE7A
:10693F00A3E0FF900A37E0FCA3E0AA04F97BFFA8CD
:10694F0018AC17AD16120F1A900500E054E9F0902D
:04695F000503E0FF4D
:016963002211
:1061FD00E4F510F51174A42511F582749E3510F592
:10620D0083E493F4600E0511E51170020510640C22
:10621D00451070E1AF11900A10EFF0700D909EB027
:10622D0093B4FF037F01227F00227B017A01790065
:10623D007519017D0D7C007FA47E9E126909900A5F
:10624D0010E0FE909EAF936F60037F0022EEFF7E05
:10625D00007C007D1B120FBAEF24A1F511EE349EC8
:10626D00F5107B017A017900751901AF11FE1269E4
:10627D0009851182851083741A936F60037F002244
:02628D007F018F
:01628F0022EC
:1012A900E4900A2BF0A3F0A3F0A3F0A3F0900A3482
:1012B90004F0E4FFFE1278EFE4900A30F0A3F01294
:1012C90061FDEF7018900A3075F001121057C39044
:1012D9000A31E09403900A30E0940040E2C3900A96
:1012E90031E09403900A30E094004048900A10E0FD
:1012F900D39401403CE014F0E0FF7E007C007D1BAC
:10130900120FBAEF24A1FFEE349EFE900A30F0A32B
:10131900EFF07B017A017900751901126909900AC8
:1013290030E0FCA3E0F5828C83741A936F6005802A
:1013390000E48006900A10E07004FF027AF0900A37
:1013490010E0FF7E007C007D1B120FBAEF24A1FF85
:10135900EE349E900A2EF0A3EFF0300C0302150430
:10136900900A2EE0FEA3E0FFF5828E83E493FC74DD
:101379000193FD9009FDECF0A3EDF0F47002ECF49B
:1013890070030214F7900A2EE0FCA3E0FD2402FB8F
:10139900E43C8B82F583E493FB7401939009FFCBC2
:1013A900F0A3EBF0ED2404FDE43C8D82F583E49396
:1013B900FD740193900A01CDF0A3EDF0900A2EA3DC
:1013C900E0FD2406FBE43C8B82F583E493FB740186
:1013D90093900A03CBF0A3EBF0ED2408FDE43C8DD8
:1013E90082F583E493FD740193900A05CDF0A3ED92
:1013F900F0900A2EA3E0FD240AFBE43C8B82F583DE
:10140900E493FB740193900A07CBF0A3EBF0ED246E
:101419000CFDE43C8D82F583E493FD740193900AFD
:1014290009CDF0A3EDF0EF240EFFE43E8F82F583A2
:10143900E493FF740193900A0BCFF0A3EFF0E490CB
:101449000A30F0A3F09009FEE02400FF9009FDE0C6
:101459003480FE9009FFE0FCA3E0FD7B017A8079EE
:1014690000E4F519126909900A2BEFF09009FFE0E1
:10147900FCA3E0FD24FFF582747F3CF583E0B5070A
:101489001374FE2DF582747F3CF583E0FF9005040B
:10149900E06F6008900A2B7401F08005E4900A2B34
:1014A900F0900A30E475F001121057900A2BE0B45D
:1014B900010FC3900A31E09404900A30E09400408F
:1014C900849009FFE0FFA3E0900A2CCFF0A3EFF08E
:1014D900D3900A31E09403900A30E09400403090B0
:1014E9000A10E0D394014006E014F0021347E49097
:1014F9000A34F0900A2CF0A3F08014E4900A34F036
:101509009009FFE0FFA3E0900A2CCFF0A3EFF09041
:101519000A2CE0FEA3E0FF9009FBEEF0A3EFF03008
:101529000B03021673900843EEF0A3EFF0900A2E16
:10153900E0FEA3E0FF2410FDE43E8D82F583E493F1
:10154900F530740193F531EF2414FFE43E8F82F5F1
:1015590083E493F52E740193F52FE531F47003E5D7
:1015690030F470030216D5900A2EE0FAA3E0FB24AA
:1015790012FFE43A8F82F583E493FF740193900A92
:1015890030CFF0A3EFF0900A30E0FEA3E0FF90081F
:1015990044E02FFF900843E03E900890F0A3EFF05D
:1015A900EB2416FFE43A8F82F583E493FE740193EA
:1015B900FF900A32EEF0A3EFF0252F900A0FF0E525
:1015C9002E3E900A0EF0E4900A2EF0A3F0E42531A5
:1015D900FFE5303480FE900A30E0FCA3E0FD90087E
:1015E900431268F9900A2BEFF0900A2EE475F00186
:1015F900121057900A30E0FCA3E0FD900844E02D5A
:10160900FD900843E03CFC74FF2DF582747F3CF5A6
:1016190083E06F600FC3900A2FE09404900A2EE0D4
:10162900940040A9D3900A2FE09403900A2EE094E5
:101639000040030216D5900A30E0FEA3E0FFA3E0C4
:10164900FCA3E0FD2FFFEC3E9009FB8FF012105731
:10165900E4252FFFE52E3480FE9008901268F9905A
:101669000A2BEFF0D20BD2048062E4900A30F0A387
:10167900F0900A2C1263B2EF7018C3900A31E0940B
:1016890003900A30E094005009E475F001121057F4
:1016990080DFC3900A31E09403900A30E09400504F
:1016A900299009FBE52E852FF0121057900A2CE09E
:1016B900FEA3E0FF900843EEF0A3EFF0900891E05D
:1016C9002FF0900890E03EF08002C20BE4FF127AFE
:0616D900F0900A34E0FF6E
:0116DF0022E8
:067C8C00127535C205224D
:017CB30022AE
:10717F00900002E4F090001174FEF0A37403F090FD
:10718F000010E4F0900013F0A3740CF090000D7455
:10719F0003F090000CF0900057E4F090005674FF4D
:1071AF00F09000407402F0900027E054EFF0900050
:0B71BF004DE4F0900026E04440F02278
:1079D0009000088012900008E05403701090000797
:0E79E000E030E4F1900028E04404F080E8225A
:0C7C4B0043A881C28890000C7403F02252
:047C9E0053A8FE22C7
:03000300027B601D
:107B6000C0E0C083C08290000CE0F534F0D082D039
:047B700083D0E032AC
:067C920043A884C28A220F
:047CA20053A8FB22C6
:030013000278CCA4
:1078CC00C0E0C083C082C0D075D008900057E0FFE4
:1078DC00900056E05F4224E524F0D0D0D082D083D3
:0378EC00D0E032B7
:1076F3008F17126CE29000497414F090004B7401E0
:10770300F0900100E517F090004A7401F0900049F1
:107713007435F0900049E020E0F9900049E054FB13
:02772300F02252
:050006007F060276F305
:106CE200900A3B740AF09000497414F090004B74BF
:106CF20001F09001007405F090004A7401F09000D8
:106D020046F090004CE4F09000497437F09000494E
:106D1200E020E0F9900049E054FBF0900100E030FF
:106D2200E014900A3BE014F07FF0127A76900A3B6E
:0B6D3200E0D3940050B0900100E0FF9F
:016D3D002233
:05000E007F040276F3FF
:050016007F500276F3AB
:10768B008F131200169000497414F090004B740184
:10769B00F0900100F0A3E513F090004A7402F09013
:1076AB0000497435F0900049E020E0F9900049E082
:0476BB0054FBF0226A
:10597000E49009F1F0F5129000497414F090004B96
:105980007401F0E51225E025E02417F582E4347A6D
:10599000F583E493900100F0E064AB600890004A66
:1059A0007401F08013E4900103F0900102F0900183
:1059B00001F090004A7404F09000467401F09000E9
:1059C0004CE4F09000497437F0900049E020E0F991
:1059D000900049E054FBF0E51225E025E02416F59F
:1059E00082E4347AF583E493FF900100E06F705213
:1059F0009009F1E512F0701D9009F37404F090091C
:105A0000F47406F09009F57480F0A374A0F0900986
:105A1000F7748F80269009F1E0B40405E4FF127654
:105A20008B9009F3741FF09009F47401F09009F55C
:105A30007484F0A3E4F09009F774FFF0A374E0F02D
:105A4000800C0512E512C394055003025977E51244
:085A5000B405037F00227F0171
:015A5800222B
:10743D009000497414F090004B7401F09009F1E044
:10744D0025E025E02418F582E4347AF583E4939061
:10745D000100F090004A7401F09000497435F090ED
:0E746D000049E020E0F9900049E054FBF022D5
:1071CA001200069000497414F090004B7401F0907C
:1071DA0009F1E025E025E02419F582E4347AF58303
:1071EA00E493900100F0E4A3F0A37481F0E4A3F027
:1071FA0090004A7404F09000497435F0900049E018
:0B720A0020E0F9900049E054FBF02266
:047620008E158F161E
:10762400E47889F67B017A0179007D01AF16AE1505
:10763400127215EF6019900100E0B4FF037F01227C
:10764400788906E6D3940340DB1271CA7F00227F57
:017654000035
:017655002212
:1079EE009009F7E0FEA3E0FF127620EF600D7F0016
:0E79FE007E80127620EF60037F01227F002240
:107B07007B017A0179007D01127215900100E06016
:077B1700037F00227F012221
:03002B00027992C5
:10799200C0E0C0D0E529B4640D75C80053A8DF75F6
:0F79A2002900D20780020529C2CFD0D0D0E03211
:1079B10020CA1B53A8DFC207E4F529F5C875CD3CE1
:0F79C10075CCB075CB3C75CAB043A820D2CA2292
:097C830053A8DFC207E4F5C82292
:107784009009EFE0FF6024900892E07002A3E060AB
:107794001A300609EFB40413127C83800BD20690CE
:0C77A40009EFE0B40405C2071279B1221D
:107BF60030060C9009EFE0B40403127C83C206221F
:107A44003006159009EFE0B40406200703127C8386
:097A5400126EA712256BC2062276
:1046C200200A030247951279EEEF70030247929097
:1046D20009F3E0FD7B017A0179007F017E8012728D
:1046E20015EF7003024792E4F5129009F3E0FFE53B
:1046F20012C39F501374002512F582E43401F5832E
:10470200E0F46004051280E2E51275F020A4242092
:10471200FFE5F03480FE7B017A0179007D20127280
:1047220015EF606CAF127E007C047D00120FBA8E12
:10473200108F11E4F51274002512F582E43401F5AC
:1047420083E0F460070512E512B420EAE512701264
:10475200E51145107002FF2274E02511F51174FF76
:104762008018E51224FFFFE434FFFEEF7805C3331F
:10477200CE33CED8F92511F511EE3510F51090098A
:10478200F5E0FEA3E02511F511EE3510F5108013CA
:104792007F0022900893E024E0F511900892E03423
:1047A200FFF51075121974942512F582E43408F598
:1047B20083E4F00512E512B420EC7B017A087994C7
:1047C2007D20AF11AE101272159008B2E0FEA3E088
:1047D200FF1F70011EE4F51274942512F582E43471
:1047E20008F583E0FDC3EF9DFFEE9400FE0512E5A0
:1047F20012B419E4EF4E70197E087F70A807AC0658
:104802007D017B017A087994FE7F19120F1A7F01CC
:03481200227F0002
:014815002280
:10256B00200A030226F51279EEEF70030228289059
:10257B0009F3E0FD7B017A0179007F017E80127205
:10258B0015EF7003022828E47885F69009F3E0FF35
:10259B007885E6FEC39F501374002EF582E4340158
:1025AB00F583E0F4600578850680E07885E675F0C4
:1025BB0020A42420FFE5F03480FE7B017A01790012
:1025CB007D20127215EF70030228287885E6FF7EB6
:1025DB00007C047D00120FBA7881A60608A607E4DA
:1025EB007886F67886E6FFC39420501374002FF597
:1025FB0082E43401F583E0F4600578860680E4E438
:10260B00900894F09009F3E0147885667057900960
:10261B00F4E0FFC374209F0866704A7883F608F6CF
:10262B001200069009F7E0FEA3E0FF123F571200DD
:10263B00067B017A0879947D017F007E80123F5FD3
:10264B00788406E6187001069009F7E0FEA3E0FF18
:10265B00127B07EF700CC37884E6940418E69400A1
:10266B0040BE0271CA7886E6FD75F020A4AEF07804
:10267B008226F618EE36F69009F5E0FEA3E0082662
:10268B00F618EE36F6ED641F70231200067885E619
:10269B002401FFE43480FE123F577885E62401FFC6
:1026AB00E43480FE127B07EF700302282812000629
:1026BB007886E62420FDE43480FC18E675F020A42F
:1026CB002DFFE5F03CFE123F577886E62420FDE413
:1026DB003480FC18E675F020A42DFFE5F03CFE12CB
:1026EB007B07EF70030228288011900893E024E009
:1026FB007882F6900892E034FF18F67E087F7078A7
:10270B0087EEF608EFF6AA06F97B0178947C087D34
:10271B00017E007F19120F1A788576197885E6FFEE
:10272B00C3941E500F74942FF582E43408F583E4A0
:10273B00F00680E878837600087601E408F6788561
:10274B00E6FFC39419501774942FF582E43408F5FF
:10275B0083E01826F6E41836F678850680E0788351
:10276B00E6FF08E69008B2CFF0A3EFF0300A15129F
:10277B0000067881E6FE08E6FF7B017A0879947DF6
:10278B0020023F5F900029E04480F0900022E0445B
:10279B0001F0900020C083C082E0FF9009E5E0F4D7
:1027AB00FEEF5ED082D083F07F05127A769009F02F
:1027BB00E0D3941040197881E6FE08E6FF7B017A9E
:1027CB000879947D20123F5F7F04127A5D8032E49A
:1027DB007886F67886E6C394205026E6FD78822626
:1027EB00FFE41836FE74942DF9E43408FA7B017D6E
:1027FB0008123F5F7F04127A5D7886740826F68094
:10280B00D2900020C083C082E0FF9009E5E0FEEF8C
:0D281B004ED082D083F0900029E0547FF071
:01282800228D
:10579500E56E6009D394205004E55360037F002231
:1057A50078B0E664017029900A2AE0444078AEF6A4
:1057B5009009F0E0D39410500CE56A540725E044B5
:1057C500A008F6801A78AEE64420F69009E8800C29
:1057D500900B06E0444078AEF6900B07E008F678AB
:1057E500ADE67012AF6EFE78007C017D01AB67AA55
:1057F50068A969120F1AE4F56D78AEE6900040F0DD
:1058050008E6A3F0A3E56BF0A3E56AF0900046E592
:105815006EF090004CE4F090004874FFF078ADE62F
:1058250090004760057403F080037401F0E4F56CA3
:105835007F0A127A76900047E030E009056CE56C46
:10584500C394FF40EB78ADE6601D900048E054033B
:105855007020AF6EFEA869AC68AD677B017A0179EF
:1058650000120F1AAF6E22900048E054077003AF84
:105875006E22056DE56DC3940850030257FE7F0047
:015885002200
:083F57007B017A0879947D01D9
:103F5F008E6A8F6B8D6E8B678A688969200A0BE476
:103F6F0078ADF678B07601025795E56E6009D39477
:103F7F00205004E55360037F00229000497414F031
:103F8F009009F1E0B40406E56E6401706E90004B89
:103F9F007402F0900100F0E4A3F0E56AA3F0A3E54A
:103FAF006BF090004A7404F09000497435F0900063
:103FBF0049E020E0F9E47889F67889E6C3956E50F8
:103FCF0022AB67AA68A969E6FFF582758300120F15
:103FDF0059FE74002FF582E43401F583EEF07889F1
:103FEF000680D690004AE56EF09000497435F09047
:103FFF000049E020E0030240ED80F490004B740193
:10400F00F090010074ADF0E4A3F0E56AA3F0A3E52E
:10401F006BF0AB67AA68A969120F40900104F0908A
:10402F000001120F59900105F090004A7406F090AC
:10403F0000497435F0900049E020E0F9E56E30E07A
:10404F000514F56D8003856E6D788976027889E6A3
:10405F00C3956D504D7F02127A7690004B7401F02C
:10406F0090010074ADF0AB67AA68A9697889E6FF83
:10407F00F582758300120F59900101F08F827583BD
:10408F0000A3120F59900102F090004A7403F090B0
:10409F0000497435F0900049E020E0F97889060670
:1040AF0080AB12000EE56E30E034120006AF6E7E6C
:1040BF0000E56B2FCDEE356ACD24FFF56BED34FFA8
:1040CF00F56A74FF2FF582EE34FFF583AB67AA68AC
:1040DF00A969120F59120F86756E01023F8F90005A
:0740EF0049E054FBF07F01E2
:0140F60022A7
:107215008E6A8F6B8D6E8B678A688969200A0B78F9
:10722500AD760178B07601025795E56E6005D39489
:107235002040037F0022E56EFD7C00E4FB1253B97C
:10724500EF7002FF22AF6E7E00A869AC68AD677B68
:0B725500017A017900120F1A7F01225C
:107AA8008E6A8F6B8D6E8B678A68896978AD76016F
:087AB800E478B0F612579522A4
:107B1E008E6A8F6B8D6E8B678A688969E478ADF695
:077B2E0078B0F61257952212
:10654F00E4F51190004004F0F56AF56B9009F0E066
:10655F00FDD394105015900040E054DFF0E56A54DD
:10656F000725E0FF9009E8E04F8014EDB4FF05D256
:10657F000A025970900040E04420F09009E8E09042
:10658F000041F09000427401F0A3F0900046F090AB
:10659F00004CE4F0900048E04401F0900047740391
:1065AF00F0900047E030E00E05117F01127A76E59A
:1065BF0011C3940340EB900048E0540360037F0045
:0365CF00227F0127
:0165D20022A6
:107260008E6A8F6B8D6E8B678A688969E56E6005A3
:10727000D3942040037F0022900542E56BF0A3E504
:107280006AF0E4FFEFC3956E501CAB67AA68A9696A
:107290008F82758300120F59900544F0900546E0E7
:0872A00020E0F90F80DE7F0100
:0172A80022C3
:10782E00E4FF127AF0900545E04406F0E05483F050
:10783E00E04402F0E04408F07F01127A5D900545C5
:09784E00E04420F07F01027A5DA4
:10795200900545E04404F07F01127A76900545E0F7
:1079620054F7F07F01127A5D900545E0548FF022C2
:10643F008E6A8F6B8D6E8B678A688969E56E6005D2
:10644F00D3942040037F0022E4FF127AF090054599
:10645F00E05481F0E0F00000000000E4FFEFC3958E
:10646F006E5024900542E56BF0A3E56AF0A3E0FEC1
:10647F0074002FF582E43401F583EEF0056BE56BC4
:10648F007002056A0F80D6900545E04406F074014E
:10649F009001006567700AE56965827004E56865BB
:1064AF00836013AF6E7E00A869AC68AD677B017A1D
:0864BF00017900120F1A7F01A0
:0164C70022B2
:1075AE00C242C241900023E054DFF0900025E04437
:1075BE0020F090002F7408F07F0A127A7690002146
:1075CE00E030E509D242900025E054DFF090002F24
:0B75DE00E030E106D241E054F7F0225B
:0653B7007B01AF6BAE6A42
:1053BD008C6A8D6B856B6E856A6C8E6A8F6B78AF20
:1053CD00A603200A5B900A2AE04440900040F0E0DA
:1053DD004480F09009F0E0D39410900040E0500F1D
:1053ED0054DFF0E56A540725E044A0A3F0800B4498
:1053FD0020F09009E8E0900041F0900042E56BF05C
:10540D00E56AA3F0900046E56EF090004CE56CF077
:10541D00900048E04407F09000477403F07F0122AC
:10542D00900500E04480F0126CE2EF30E0037F0065
:10543D0022900500E0547FF078AFE66007900040C1
:10544D00E04480F09000497414F090004B7402F029
:10545D0090010004F0E4A3F0E56AA3F0A3E56BF07E
:10546D0090004A7404F09000497435F0900049E0C2
:10547D0020E0F9900046E56EF090004CE56CF09060
:10548D000049743FF078AFE660037F012290004938
:10549D00E020E0F9900049E054FBF0900040E0542A
:0554AD007FF07F0122E9
:0D63B200E0FCA3E0FDAB2FAA2EAF31AE3012
:1063BF008C638D648A658B668E6A8F6B900501E5A1
:1063CF0066F0A3E565F09005007405F0900551E5C2
:1063DF0064F0A3E563F0E478AEF6AD66AC651253F6
:1063EF00B7EF600878AEE6D3940840037F0022121F
:1063FF006EA7EF60E5E52CF46033E5642566FFE5F5
:10640F00633565FE74FF2FF582747F3EF583E0FDE3
:10641F00900503E0B5051374FE2FF582747F3EF5EA
:0F642F0083E0FF900504E06F60037F00227F0190
:01643E00223B
:10753500900B34747CF0A374B6F0900B3A747CF025
:10754500A374B7F0900B3C747CF0A374B8F0900B67
:107555003E747CF0A374B9F0900B42747CF0A37474
:0D756500B4F0900B44747CF0A374B5F022D8
:106EA700200A3B900047E020E0F9900040E0547F43
:106EB700F0900048E05403603A300C37300519E58C
:106EC70052D394004007155274FFF08003E4F55342
:106ED700E553B4020375530178AE067F0022900094
:106EE70049E020E0F9900049E054FBF0900040E0D1
:066EF700547FF07F012230
:0243F900AD070E
:1043FB00200503024565E55364027003024565E53C
:10440B0053702A900A0DE0B5050302456512753508
:10441B00900027E054EFF0000000000000755301FE
:10442B00E4F55290050574FFF0A3F0802B300C38A7
:10443B00200A2B900047E030E003024568900048CB
:10444B00E054036013D55203E4F55378AE06E6D37C
:10445B009408401475540922E478AEF6800A900053
:10446B0049E030E003024568E55275F0C8A485F0D9
:10447B0010F5119009FCE02511F5139009FBE035BF
:10448B0010F512900551E513F0A3E512F0ED25E0C0
:10449B0025E024FDF582E43409F583E0FEA3E02555
:1044AB0011F56BE5103EF56AE51124C9FFE43510F3
:1044BB00FEED25E025E024FFF582E43409F583E0E9
:1044CB00FAA3E0FBD39FEA9E40087510007511C854
:1044DB008020C3EB9511F511EA9510F510900A0D9C
:1044EB00EDF0755302900553E4F0EDC454F02480C5
:1044FB00A3F0900501E511F0A3E510F0E553B4022C
:10450B0005756D458003756D61300C13900500E5E5
:10451B006DF0AD11AC101253B7EF6041055222E4B0
:10452B00FFFE1278EFE56D4410900500F0AE10AF72
:10453B0011E4256BFDE56A3480FAA9057BFFC00108
:10454B0074002513F974803512A801FC7D01D0018C
:0D455B00120F1A0552E4FF027AF0755302A8
:014568002230
:1054B2002005030255A5E553640260037F00229094
:1054C2000027E030E406E4F5537F0122200A289009
:1054D2000047E030E0037F0022900040E0547FF07C
:1054E200900048E054036009300C067553017F00B8
:1054F20022E478AEF68018900049E030E0037F00A5
:1055020022900049E054FBF0900040E0547FF0907C
:105512000027E04410F0000000000000E4F5539082
:1055220009FCE0900551F09009FBE0900552F090E3
:105532000A0DE0FDC454F0FEE42400FFEE3480FEC8
:10554200ED25E025E024FFF582E43409F583E0FC53
:10555200A3E02FF56BEC3EF56AF583E56B24FFF5CE
:1055620082E58334FFF583E493FF900503E0B507FA
:1055720016E56B24FEF582E56A34FFF583E493FFBA
:10558200900504E06F6009E4900A0DF00554FF22D3
:10559200E4F55490800093FE740193AA06F9121266
:0955A200778003E4F5537F012238
:10797200E554D394054018E4F554900026E04404FD
:10798200F0200C04E04408F0900026E04410F022BD
:026964008F178B
:10696600E4F518127B4BE517121251698D006992F6
:1069760001699702699C0369A10469A60569AB06CA
:1069860069BC07000069C9900B40801C900B4C80C5
:1069960017900B4E8012900B54800D900B58800868
:1069A600900B5A8003900B5CE0FEA3E0AA06F91256
:1069B60012778F18800D900B56E0FEA3E0AA06F919
:0869C600121277127BC1AF1819
:0169CE0022A6
:107B4B00E5536010126EA7900027E04410F0000080
:057B5B00000000002203
:107BC100E553600D900027E054EFF0000000000045
:027BD100002290
:104F7300900B147477F0A374B0F0A37477F0A37458
:104F8300DAF0A37470F0A374E6F0A3747CF0A37456
:104F930063F0A3745BF0A37441F0A3746DF0A37486
:104FA300F4F0A3745DF0A3747BF0A37450F0A374C6
:104FB30093F0A3747AF0A3745DF0A3747AF0A374EE
:104FC30076F0A3747CF0A37498F0A3747BF0A374BD
:104FD30035F0A3747AF0A374C0F0A3747BF0A374C8
:104FE300E5F0A3747CF0A3746EF0A3747CF0A37457
:104FF300BAF0900B36747AF0A374A8F0A3747BF024
:10500300A3741EF0900B40747CF0A374AAF0A374F5
:105013007CF0A374B4F0900B4A7456F0A374A1F01F
:10502300A3747CF0A374ADF0A3747CF0A374B0F00C
:10503300900B44747CF0A374B5F0900B487472F039
:10504300A37415F0900B46743FF0A3745FF01275D0
:10505300357E7C7FB4900B50EEF0A3EFF0A3747C0D
:10506300F0A374A6F07C7C7DADA3ECF0A3EDF0A3DC
:10507300EEF0A3EFF0A3ECF0A3EDF0A3ECF0A3EDBF
:10508300F0A3ECF0A3EDF0A37472F0A374A9F022E3
:106C25009009E7E0FF900020E05F6003D38001C397
:106C3500301C01B3502A900841E004F0E09406406E
:106C450024A21C301D01B34007A21DB3921C800471
:106C5500A21D921CA21C301D01B34004D21E80004F
:106C6500E4900841F0301E16301F05D217C21E22CF
:0F6C7500201B04D21B8002C21B1275E9C21E2213
:101D0D00900015E04401F0900026E054FCF0000036
:101D1D000012717F126A38127C57124F7390002691
:101D2D00E020E20D122829EF6007300C19D2058052
:101D3D0015C20CC20BE49009EFF09009E874A0F005
:101D4D00900A2A7402F0900545E0547FF0200C1C97
:101D5D001212A9BF010B900026E020E304D20580EA
:101D6D000BC205C204C20BE49009EFF0D20D7F4601
:101D7D00126DF4126B04900550E4F030053A9000AA
:101D8D0027E04410F0000000000000000000E49087
:101D9D000A0DF090800093FE740193AA06F91212B9
:101DAD00773005047F0180027F00900550EFF090A1
:101DBD000553E4F0A374C0F0E4F5537F011243F929
:101DCD001279721254B2EF60F2124962124A9F9068
:101DDD000B34E0FEA3E0AA06F91212777F0212433C
:101DED00F91279721254B2EF60F21279D0304615B1
:101DFD00E5D830E10A53D8FC900026E04410F043BA
:101E0D008EC043D803127C9E127CA2127C4B127C96
:101E1D0092E4F55030460343D801900026E020E6C9
:101E2D0037E53430E0325334FEE4F5537F0112438D
:101E3D00F91279721254B2EF60F2124A9F900B347C
:101E4D00E0FEA3E0AA06F91212777F021243F912FF
:101E5D0079721254B2EF60F2900007E030E413E5AE
:101E6D004E541C64106008E54E54E04410F54F12BA
:101E7D006BC5900002E030E7065334FD1265D33098
:101E8D000304054E800BE54FF46006854F4E754FEC
:101E9D00FFC202C203900B3EE0FEA3E0AA06F912B8
:101EAD0012772002031216E0900848E060149009A2
:101EBD00E7E0FFF4600C200F03301F06900024E0D4
:101ECD004FF0E52460123020020551900B3AE0FEF0
:101EDD00A3E0AA06F91212770550900848E0605E5B
:101EED00E5505407705830191E900004E020E1179A
:101EFD009000C07402F0A314F0E4A3F0A304F090DA
:101F0D0000057404F0C219301A1D900004E020E1A0
:101F1D00169000C07402F0A314F0E4A3F0A3F090A7
:101F2D0000057404F0C21A9009E6E0F46003127320
:101F3D00BD300F0A9009E7E0F46003126C253007FD
:101F4D0003127A44900B42E0FEA3E0AA06F91212A6
:101F5D0077204703021E21900A1F74FFF5F012101F
:101F6D0057900A1FE07002A3E06003021E217F0557
:101F7D00126964EF6003021E21C247900010E02039
:101F8D00E42E9004C0E04430F0900010E04410F0D6
:101F9D009004DCE04401F07F6E126DF47F027E0050
:101FAD00125093900A1FEEF0A3EFF0D247021E21BC
:101FBD00900A23E070079004C0E054DFF0900A24EB
:101FCD00E06003021E219004C0E054EFF0021E21D8
:1073BD009009E6E0FF900020E05F60047F0180020D
:1073CD007F00A218E4336F6021900842E004F0E0E2
:1073DD00D39406401AEF24FF9218A218300101B37E
:0F73ED004004D2198004D21A8000E4900842F0C4
:0173FC00226E
:1016E000E54E12125117B50417B80817BA0C17BDFA
:1016F0001018092419A82519A826183F2718092801
:1017000019A82919A82A183F2B183C2C183C301965
:10171000A84419A84519A84618494719A84819A85E
:101720004919A84A18494B18464C1846501868647D
:1017300018B26519A86618BE6718686818B66919DE
:10174000A86A18D56B18686C18687018E48C18E4CF
:101750009018EBA41955A519A8A619ABA7193CA870
:101760001955A919A8AA19ABAB193CAC1955AD1953
:10177000A8AE19B2AF193CB01955B119A8B219B237
:10178000B319B9C419A8C519C1C619CFC719B9C8A1
:1017900019A8C919C1CA19CFCB19B9CC19A8CD1923
:1017A000C1CE19D1CF19B9D019A8D119C1D219D424
:1017B000D3000019FD0219AB804B0218E4127A44E1
:1017C000900A1AE0B410079004D0E04480F0900032
:1017D00007E030E409900028E04404F080F090082D
:1017E00045E030E10B900028E030E504E04401F0F2
:1017F000900A1AE0B410079004D0E0547FF09000F3
:1018000016E04410F0534EE022900008E030E0076C
:10181000900016E054EFF090002AE4F0900054F0AD
:101820009002E0E065477011A3E0B5460CA3E0B577
:101830004907A3E0B548028028D203220218E453E6
:101840004E1C434E40220218E4D228D229D22AD27A
:101850002BD22CD22DD22ED22FD230D231D234D282
:1018600035534E1C434E6022E553640260087F03EB
:101870001243F91279721254B2EF70030219FD90FB
:1018800000557410F0E54EB4640AAD3FAC3EAF3D78
:10189000AE3C800DE54EB46817AD45AC44AF43AEE9
:1018A0004212632390005674FFF0A374530219CBC5
:1018B0008032AF3B8002AF41126C84D20322900091
:1018C00014E054BFF0900051E04420F0C21B534E8E
:1018D0001C434E8022900014E054BFF0E04420F0FE
:1018E000754EA422534E1C434EA02230404E900011
:1018F00012E07030900011E0702A900006E030E2B3
:1019000035302032900010E054FEF09009E4E09071
:101910000011F09009E3E0900012F0900010E04414
:1019200001F08012900014E070047F0180027F00BB
:10193000EF30E502C2403040030219FD900051E053
:1019400054DFF0E4F525F526F524900057F09000DB
:101950005674FF8076E553640260087F021243F9F3
:101960001279721254B2EF70030219FD900051E027
:1019700030E5030219FD900014E030E5030219FD83
:101980009000527403F09000557410F0900069E4D8
:10199000F0900A1BE0700790003EE04401F09000D8
:1019A00053E4F09000708023D20322534E1C434E28
:1019B0002022534E1C434EC022900055E054EF802D
:1019C0000A9002E0E4F0A3F0A3F0A3F0D203228097
:1019D00029534EE090005474F0F090002A740FF0F8
:1019E0009005607403F0900008E030E00D900A1B51
:0E19F000E07007900016E04410F0534E1C22E9
:086323008E108F118C128D13F6
:10632B009002E0E547F0A3E546F0A3E549F0A3E5CD
:10633B0048F0C3E547954BFFE546954AC313798073
:10634B00F7EF1309F7C3E549954DFFE548954CC3A6
:10635B001309F7EF1309F77881E6900072F018E64E
:10636B00A3F07883E6A3F018E6A3F0A3E54BF0A324
:10637B00E54AF0A3E54DF0A3E54CF0301516E5101A
:10638B00C313F510E51113F511E512C313F512E55F
:10639B001313F51390007AE511F0A3E510F0A3E5C4
:0663AB0013F0A3E512F05F
:0163B10022C9
:106C8400EF6401702290005030140404F080097401
:106C940003F09000537408F0900054E04480F090A6
:106CA40002BAE054FDF022EF6402703190005030DB
:106CB40014057402F080097404F09000537408F011
:106CC400900061740AF09000677433F020410790DB
:0E6CD4000070E04480F09002BAE04402F0222A
:1072A900EF64017023900A1BE0700790003EE054E0
:1072B900FEF0900A16E0900052F09000697482F096
:1072C90090003EE054FEF022BF021C900A16E090A6
:1072D9000052F09000697402F0900070E04410F0E0
:0872E90090003EE04401F02298
:106D3E0000020407090B0D10121416181B1D1F213B
:106D4E002325282A2C2E30323436383A3C3E404207
:106D5E00444648494B4D4F5152545657595B5C5E11
:106D6E005F616263656668696A6B6D6E6F70717282
:106D7E0073747576777778797A7A7B7C7C7D7D7E75
:0B6D8E007E7E7F7F7F7F7F7F7F7F7F87
:1077B000D3900876E09400900875E06480948090FF
:1077C00002B04008E4F0900876E080097402F0907E
:0A77D0000876E0F4049002B1F02204
:1077DA00D3900878E0940F900877E094004009A3CA
:1077EA00E024F19002B2F022900878E0FFC3740F0F
:0A77FA009F9002B2F0E04480F022FC
:1070E600900879E0FEA3E0FF4E9002A07005E05400
:1070F600FBF022E04404F07C007D64121021126F44
:10710600539002ABEFF0900879E0FEA3E0FF7C001D
:107116007D64121021126FF9EFF4049002ACF0E0D6
:0D712600F404A3F09002ABE09002AEF02262
:0B7C630090087CE0547F9002B3F022F8
:105B4100900230E04403F07F44126DF490087FE04E
:105B5100FEA3E0FF7C007D0A120FCCEF24FEFFEED6
:105B610034FFFE7C007D11120FBA8E118F12E4F505
:105B7100107E00E5122510FFEE3511FE125D7B74DB
:105B8100F52510F582E4340AF583E0FEEF8EF0A4EA
:105B9100AEF07807CEA2E713CE13D8F8F5148E1322
:105BA100E510D39400403B74302510F582E43402B3
:105BB100F583E0FFC3E5149FE5139400501374309F
:105BC1002510F582E43402F583E0751300F51480A5
:105BD10011D3E51494FFE513940040067513007585
:105BE10014FF74312510F582E43402F583E514F0D5
:0C5BF1000510E510C394115003025B7214
:015BFD002285
:106FF900D3EF94A6EE6480947F5005EF24B4800EFD
:10700900D3EF9400EE64809480500DC3E49FFFEFAA
:10701900906D3E93F404FF22D3EF945AEE6480946A
:107029008050028010D3EF94B4EE64809480500CA9
:0F703900C374B49FFFEF906D3E93FF227F002240
:106F5300D3EF94A6EE6480947F5006C374A69F80FB
:106F630035D3EF9400EE648094805005EF245A806B
:106F73000FD3EF945AEE64809480500CC3745A9FDD
:106F8300FFEF906D3E93FF22D3EF94B4EE648094B1
:106F930080500D74A62FFFEF906D3E93F404FF22F3
:036FA3007F00224A
:1066C700E5112403FFE43510FAA9077B01900001C7
:1066D700020F59F582E43510F583E0900081F075DB
:1066E700180222E52FF0900002E04440229000803B
:1066F700F085118285108322E5362512FFE53535B1
:1067070011FE7C00EF2510FFEC3E8F82F583E493AA
:1067170022900080F07518012274802510F582E41C
:106727003400F58322E0851F82851E832290008036
:04673700F0E5112256
:1065D300E4FF126964EF64016073900003E0547F89
:1065E300FFBF0807900002E020E709900002E05493
:1065F300FEF08052900080E0F52CA3E0F52DA3E09F
:10660300F52FA3E0F52EA3E0F531A3E0F530A3E0E9
:10661300F533A3E0F532900002E054FEF07F01125F
:106623006964EF64016026E52C5460FFBF20030218
:106633007880E52C5460700302094EE52C5460FF0A
:0E664300BF400302681F900001E04401F022F6
:10094E00E4F511F512F513F5147880F6E52D121273
:10095E005109810009C4010A33030B12050B40062D
:10096E000D05070D08080D18090D490A0D6D0B0030
:10097E00000D05E52C247F600C14601624027026F1
:10098E00900845801AE531D394024003020E42E4EA
:10099E00800EE531B481059008468003900A19E077
:1009AE00900080F08003020E42E4900081F09000EF
:1009BE00037402020D15E52C541FFD700EE52FB4C5
:1009CE000109900845E054FDF0804AED6402701D67
:1009DE00E52F7019E531B48114900846E054FEF00D
:1009EE00900001E04408F0E054FBF08028E52C5420
:1009FE001F6402701DE52F7019E531B48514900A3D
:100A0E0019E054FEF0900001E04480F0E054BFF095
:100A1E008003020E421266EDF0900002E020E60323
:100A2E00020E4980F4E52C541FFD6003020AC2E554
:100A3E002FB4010A900845E04402F0020B02E52FA4
:100A4E006402706D900008E030E007900016E054EC
:100A5E00EFF0E530B401121266EDF0900002E020E6
:100A6E00E6F99000097483F022E530B402121266A2
:100A7E00EDF0900002E020E6F99000097485F02276
:100A8E00E530B403121266EDF0900002E020E6F9B4
:100A9E009000097407F022E530B404121266EDF0EE
:100AAE00900002E020E6F99000097409F022020E8F
:100ABE0042020E42BD0219E52F7015E531B48110C8
:100ACE00900846E04401F0900001E04404F08024D8
:100ADE00E52C541FFFBF0219E52F7015E531B485C3
:100AEE0010900A19E04401F0900001E04440F080BB
:100AFE0003020E421266EDF0900002E020E60302C1
:100B0E000E4980F41266EDF0900002E020E6F990B6
:100B1E000000E52FF0E4900847F0900848F07F01C0
:100B2E0012747BE5536003020E49900016E04410E8
:100B3E00F022E52C541F64017039900A1AE07004FB
:100B4E007F0280027F048F10304425E531B51020DE
:100B5E00127B4B900B52E0FEA3E0AA06F91212771D
:100B6E008E138F14127BC1E51445136003020C3EE5
:100B7E00020E42E52C541F6003020E49E52E24FEA0
:100B8E00601514602C24FD605F14606E24066003F3
:100B9E00020C3BE4FF8053E4FF12747B3000047FB1
:100BAE000180027F15126DF4121FDD8E138F1480DB
:100BBE0079E52F24FA5002800AE52F242FFF126DBB
:100BCE00F4800F7F02126964EF7003020E42788088
:100BDE0076017880E670028015853682853583E44D
:100BEE0093751300F51480487F35126DF4E4FFFE03
:100BFE00125D7B7513008F1480367F29126DF4857C
:100C0E003511853612E4FFFE125D7B8F101235F31F
:100C1E007F037E00125D7B8F137F027E00125D7B51
:100C2E008F14851135851236AE130219FE020E424F
:100C3E00D3E5149533E5139532400685321385338B
:100C4E0014E4F511F512E51445137003020D6AD381
:100C5E00E5149440E51394004046E4F5107880E6E0
:100C6E00700FFEE5122510FFEE3511FE125D7B8032
:100C7E00041266FFFF126720EFF00510E510C39413
:100C8E004040DA9000037440F02512F512E435115D
:100C9E00F51174C02514F51474FF3513F513804D3A
:100CAE00E4F510AF107E00C3EF9514EE9513501FB0
:100CBE007880E6700DE5122FFFEE3511FE125D7B8A
:100CCE0080041266FFFF126720EFF0051080D490AB
:100CDE000003E514F064404513700D90000274504B
:100CEE00F0900002E020E6F9E4F513F514127B749F
:100CFE00EF6003020C5422020E42900847E090006F
:100D0E0080F09000037401F08052900001E054FADC
:100D1E00F0E52FB40106900847F0800FE52F70081C
:100D2E00900847E52FF08003020E421266EDF09018
:100D3E000002E020E603020E4980F4E531B401061C
:100D4E00900848E0800CE531B40306900A1BE08061
:100D5E0001E4900080F09000037401F0027B74E5D2
:100D6E003164016003020E099008481266EAF090A1
:100D7E000002E020E6F9900848E07012900014E0BE
:100D8E004440F0E54E54E0440CF54F027A4490088E
:100D9E0048E0C394015003020E49E54E54E044046A
:100DAE00F54F126651E540FD7C007E037FE8120F81
:100DBE00CC8E118F1290004FE511F090004EE5127F
:100DCE00F0900014E030E573D240900011E09009ED
:100DDE00E4F0900012E09009E3F0900012E4F0903D
:100DEE000011F0900051E04420F0900006E0440421
:100DFE00F0900057E04401F0C22022E53164037008
:100E0E0022900A1B1266EAF0900002E020E6F990AA
:100E1E000A1BE07003026BC5300020900016E054F0
:100E2E00EFF022E531700D1266EDF0900002E03029
:0B0E3E00E60980F7900001E04401F09D
:010E49002286
:10788000E531700302673BE531B40103024BDAE5F1
:1078900031B40203026FA6E531B483030245699057
:0778A0000001E04401F022A9
:10681F00E4F510F511F512E52D247E604004705655
:10682F00E4FDAC2FE52EC313F52EE52F13F52FEC5A
:10683F0030E003432E800DBD02E874CE252FF52FD7
:10684F007416352EF52E632FFF632EFF900080E513
:10685F002FF0A3E52EF0900003740280153000088E
:10686F009000807401F08005E4900080F0900003A8
:0D687F007401F0027B74900001E04401F010
:01688C0022E9
:10665100900848E0FF606E30002E1424FC50028048
:1066610007EF240DFF126DF47F047E00125D7B8F16
:10667100167F057E00125D7B8F15E51513131354EC
:1066810003F517531507802B900848E0FF1424FCED
:1066910050028031EF2421FF126DF47F047E00123D
:1066A1005D7B8F167F057E00125D7B8F15E4F517EC
:1066B100531503900011E516F0E515A3F0A3E517B6
:0566C100F0A3740CF0D1
:0166C60022B1
:10673B00E530603314602224FE602924FD600F24B1
:10674B0004705FE52DB401030237FC0222A5E52D91
:10675B00B401030242860272F1E52DB4010302601B
:10676B00CA026D99027C15E52E64027028E52DB4E2
:10677B00810A90086FE0900080F08010E52DB486C0
:10678B00089000807401F08003027C319000037448
:10679B0001F0027B7490086F7405F0900001E044E7
:0367AB0001F022D8
:065EDD008B118A128913EB
:105EE300126DF4E5146401704D900800E0F516A3FB
:105EF300E0F5157F017E001250938E198F1A7F03F0
:105F03007E00125093C3E516951AE5196480F8E5EF
:105F1300156480984050D3E5169FEE6480F8E5152C
:105F23006480984002803F851382851283E515F0D3
:105F3300A3E516F08044900800E0F516A3E0F515FC
:105F43007F017E001250938E178F187F037E0012FD
:105F53005093C3E5169518E51595174009D3E51633
:105F63009FE5159E4006127C237F0022AB11AA12E7
:0F5F7300A913E5158516F01210981277847F0197
:015F820022FC
:1037FC00E4FF900002E030E0F9900003E0547FFF1A
:10380C007E0078007C087D017B017A007980120FA4
:10381C001A900002E054FEF0E52EB401197B017AF7
:10382C00087973E4F5147F40125EDDEF7003023902
:10383C00F9D228023991E52EB402197B017A087964
:10384C00757514017F38125EDDEF70030239F9D201
:10385C0029023991E52EB403197B017A087977E4B2
:10386C00F5147F39125EDDEF70030239F9D22A02AA
:10387C003991E52EB40519900800E0D39402400369
:10388C00023954900800E0900870F0D22B0239896C
:10389C00E52EB406197B017A0879797514017F3A03
:1038AC00125EDDEF70030239F9D22C023991E52E4C
:1038BC00B407197B017A08797BE4F5147F3B125E1F
:1038CC00DDEF70030239F9D22D023991E52EB408DF
:1038DC00197B017A08797DE4F5147F3C125EDDEFEB
:1038EC0070030239F9D22E023991E52EB409187BF6
:1038FC00017A08797FE4F5147F3D125EDDEF7003E9
:10390C000239F9D22F807EE52E640A702C90087152
:10391C00E0600E90086F7402F0900001E04401F03A
:10392C00227B017A087981E4F5147F3E125EDDEF8B
:10393C0070030239F9D230804CE52E640B7026905E
:10394C000800E0D394014003027C23900800E0FFC0
:10395C00900871E06F6002D210900800E09008713E
:10396C00F0D2318018E52EB404187B017A087983E3
:10397C00E4F5147F3F125EDDEF6072D23212778471
:10398C008003027C15E490086FF09000027440F004
:10399C00900002E020E6F9301053C210900004E0D1
:1039AC0030E104A3E070F59000C07401F0A304F0C2
:1039BC00E4A3F0A3740AF0A37401F0900871E0FD85
:1039CC009005A76006E49344048004E49354FB90B0
:1039DC0000C5F09000057406F0ED6011900004E055
:0D39EC0030E104A3E070F59000057406F0D2
:0139F90022AB
:085CB9008F198B1A8A1B891C4C
:105CC100751E09751F3D126DF4E51D6401701312F7
:105CD1005D09851C82851B83E0FFA312672CCF021F
:105CE1005CFCE4125D09E51964416014AB1AAA1B5E
:105CF100A91C12106DFF12672DE5F0F0A3EFF02241
:075D010090087012672CF0FE
:105D080022FFFE125D7B851F82851E83A3A3EFF011
:105D18007F017E00125093851F82851E83A3A3A353
:105D2800EEF0A3EFF07F037E00125093E51F2405E9
:105D3800F582E4351EF583EEF0A3EFF07F057E00D3
:105D4800125093E51F2407F582E4351EF583EEF023
:105D5800A3EFF07F077E00125093E51F2409F58218
:0B5D6800E4351EF583EEF0A3EFF022FF
:1022A500E4F516F5173000047F0780027F1B126DD9
:1022B500F47F087E00125D7B8F157F097E00125D1D
:1022C5007B8F1475100975113D751209751348E555
:1022D5002EB40116E51420E00302242A7B017A08B6
:1022E5007973E4F51D7F40022425E52EB40216E539
:1022F5001520E00302242A7B017A087975751D01F2
:102305007F38022425E52EB40316E51520E10302E6
:10231500242A7B017A087977E4F51D7F3902242583
:10232500E52EB40516E51420E20302242A7B007A83
:10233500007900E4F51D7F41022425E52EB406163B
:10234500E51520E20302242A7B017A087979751DB7
:10235500017F3A022425E52EB40716E51520E3038F
:1023650002242A7B017A08797BE4F51D7F3B022450
:1023750025E52EB40816E51520E40302242A7B0181
:102385007A08797DE4F51D7F3C022425E52EB40904
:1023950016E51520E50302242A7B017A08797FE4F6
:1023A500F51D7F3D022425E52E640A7021E51520E3
:1023B500E60280717B017A087981E4F51D7F3E1282
:1023C5005CB9E52D64817060900005F0805AE52EBA
:1023D500640B7035E51420E402804A7F42126DF4E7
:1023E500751601E4FFFE125D7B1266F8A3A3EFF0FC
:1023F5007F017E00125D7B1266F8A3A3A3EFF09028
:102405000871E01266F8F0801FE52EB40417E51494
:1024150020E10280107B017A087983E4F51D7F3F76
:10242500125CB98003027C15E52D247E604314609F
:10243500641470030224C524FE70030224F0147092
:10244500030225292406600302255FE516B401026F
:102455008005E52EB4050A1266F8E0126718022514
:1024650057AA10A9111266D21266F41266E1022566
:1024750057E516B4010302255FE52EB4050812667B
:10248500C7126718800C1266C71266F4A3A3A312BD
:1024950066E1022557E516B4010302255FE52EB472
:1024A500050CE51124051266CB126718800FE5119E
:1024B50024051266CB12673424051266DA02255705
:1024C500E516B4010302255FE52EB4050CE51124DC
:1024D500071266CB126718800FE51124071266CB29
:1024E50012673424071266DA022557E516B401028D
:1024F5008020E52E640A701A900871E0600B126660
:10250500F8A3A3E04404F080091266F8A3A3E054FD
:10251500FBF01266F8A3A3E0900080F0900003742E
:1025250001F08039E516B401091266F8A3A3A3E00A
:10253500800CE52EB4050CE51124091266CB126753
:1025450018800FE51124091266CB1267342409128D
:1025550066DA900003E518F08003027C31E4900808
:052565006FF0127B7411
:01256A00224E
:022AD4008F125F
:102AD600ED6003022C4FF51475151A90089404F056
:102AE600E4A3F0900889E0900896F090088AE090B8
:102AF6000897F075130874942513F582E43408F5E5
:102B060083E4F00513E513B412EC90088BE0F5139B
:102B16007D01AF131269D58E1E8F1F7D02AF131272
:102B260069D5E48F198E18F517F516AE1EAF1FFC82
:102B3600FDAB19AA18A917A8161210B78F198E1867
:102B46008D178C16E53B640170247B02FAF9F812A6
:102B560010B78F198E188D178C167D01AF13123A88
:102B6600018F133000047F49802F7F4B802BAF19D4
:102B7600AE18AD17AC16E47B03FAF9F81210B78F4E
:102B8600198E188D178C167D02AF13123A018F130A
:102B96003000047F4A80027F4C126DF4E512247FD8
:102BA600602F24FE601624FC601224057045751DF6
:102BB60080751C96751B98751A008037E51375F09D
:102BC60007A424DDF582E43400F583E493F513804D
:102BD6000490088CE0FF127BD375F004EFA4247BED
:102BE600F582E5F03407F5831212108F1D8E1C8DC9
:102BF6001B8C1A900898E51DF0A3E51CF0A3E51BB5
:102C0600F0A3E51AF09008A6E519F0A3E518F0A3DD
:102C1600E517F0A3E516F0E4FFFE125D7B9008AA27
:102C2600EFF07F017E00125D7B9008ABEFF07F0234
:102C36007E00125D7B9008ACEFF07F037E00125D94
:102C46007B9008ADEFF0022D2675140075150B90DC
:102C5600088DE0900894F090088EE0900895F0E4D6
:102C6600A3F090088FE0F5137D01AF131269D58E9E
:102C76001E8F1F7D02AF131269D5E48F198E18F5CA
:102C860017F516AE1EAF1FFCFDAB19AA18A917A89B
:102C9600161210B78F198E188D178C16E541B401D0
:102CA600193000047F4980027F4B126DF4AF19AED4
:102CB60018AD17AC16E47B0280173000047F4A80FB
:102CC600027F4C126DF4AF19AE18AD17AC16E47B4B
:102CD60003FAF9F81210B78F198E188D178C169003
:102CE6000897E519F0A3E518F0A3E517F0A3E51694
:102CF600F0E4FFFE125D7B90089BEFF07F017E0003
:102D0600125D7B90089CEFF07F027E00125D7B9047
:102D1600089DEFF07F037E00125D7B90089EEFF02A
:102D2600D3E5159533E5149532400685321485337F
:102D360015AE14AF1578807C007D017B017A087989
:0D2D460094120F1A900003E515F0027B7443
:104BDA00E52D247F24FD4003024CF024FD700302DE
:104BEA004CF024866003024D0DE52E24FE6013145A
:104BFA00605214604F147003024C93240460030241
:104C0A004D0D900002E030E0F9900003E0547FF58A
:104C1A0010E4F511E511C39510501E74802511F5A5
:104C2A0082E43400F583E0FF74002511F582E43450
:104C3A0008F583EFF0051180DB900002E054FEF0E6
:104C4A00E4FF8040900002E030E0F9900003E05475
:104C5A007FF510E4F511E511C39510501E748025F7
:104C6A0011F582E43400F583E0FF74002511F58222
:104C7A00E43408F583EFF0051180DB900002E0547C
:104C8A00FEF07F01123DA8804D900002E030E0F96D
:104C9A00900003E0547FF510E4F511E511C3951077
:104CAA00501E74802511F582E43400F583E0FF7408
:104CBA00002511F582E43408F583EFF0051180DB55
:104CCA00900002E054FEF0900800E0B40108E54EBE
:104CDA00B48403754FA8900002E04440F0900002AB
:104CEA00E030E62680F7E52E24FE600A14600B14F5
:104CFA0060082403700BE4FD80027D01AF2D022AB7
:0A4D0A00D48000900001E04401F0A5
:014D1400227C
:0E7C150090086F7406F0900001E04401F02228
:0E7C230090086F7404F0900001E04401F0221C
:0E7C310090086F7407F0900001E04401F0220B
:107B7400900002E030E10A43D801E53460F27F006E
:047B8400227F012239
:1019FE00D3E5339FE5329E40048E328F337881A635
:101A0E003508A636E408F6788AF6788CF67887F6E6
:101A1E0008F6788BF6788976FF788AE67015788CDA
:101A2E00E670357881E6FE08E6FF1276567884A6D3
:101A3E000780257887E62419F582E43409F583E0DA
:101A4E00FF7884F6788706BFFF0E788206E6187058
:101A5E000106E4788AF680C1788CE66003021B40AA
:101A6E007887E660467884E6FF64026005EF643F9F
:101A7E007039900A1AE0700678847684802D300BC7
:101A8E0012900844E0245FF536900843E03480F568
:101A9E0035800675350275364BAF36AE3512765635
:101AAE007884A6077881A63508A6367884E6FFC323
:101ABE00940D4006EFD394324009EF64016004EFB9
:101ACE00B40205126E4E80317884E6B483157888A0
:101ADE00E606FF122F83788B7601900A1EE0788936
:101AEE00F680167884E6B4840976017F0312696461
:101AFE00803A7884E6FF1235F37884E6FF6401605D
:101B0E0011EF6402600C788AE66401600508E6B4A1
:101B1E000107E4FF12001E80137884E6B40C0778E8
:101B2E008A7601021A27E4FFFE125D7B7885A607EE
:101B3E00800B853682853583E4937885F6E4788646
:101B4E00F67886E6FFC318964003021BF5788CE6FE
:101B5E00B401127E00E5362FFFEE35358F82F58308
:101B6E00E493FF802B7884E6FF64016011EF64023A
:101B7E00600C788AE66401600508E6B4010978868F
:101B8E00E6FF12001E80097886E6FF7E00125D7B5E
:101B9E007883E62480F582E43400F583EFF0E533B4
:101BAE00153370021532788306E6B44013900003A5
:101BBE007440F0127B74EF7003021D0CE47883F610
:101BCE00E5334532701B7883E6FF6006900003F024
:101BDE0080159000027450F0900002E030E608800C
:101BEE00F7788606021B4FE53345327003021CCF91
:101BFE007889E6C4540FFF18E675F00584B507051D
:101C0E00E4F6788BF6788AE66003021A2708E66017
:101C1E0003021A2708F6900A17E0FEA3E04E70039F
:101C2E00021CBCE408F6900A17E0FEA3E0FFF58262
:101C3E008E83E0FD788DE6FCC39D507275F004EC4A
:101C4E00121245E5822406F582E43583F583E070B1
:101C5E0057900A17A3E0F5828E83E675F0041212F0
:101C6E0045A3A3A3E0788466703E788C76018F82BC
:101C7E008E8308E6FD75F004121245E5822404F504
:101C8E0082E43583F583E0F535A3E0F5368F828E59
:101C9E008375F004ED121245E5822406F582E435D3
:101CAE0083F5837401F08006788D06021C34788CDF
:101CBE00E66003021A27788206E618700106021AF9
:101CCE0027127B74900A17E0FEA3E04E6030E47892
:101CDE008DF6900A17E0FEA3E0F5828E83E0FD7884
:101CEE008DE6FCC39D501775F004EC121245E5828B
:0E1CFE002406F582E43583F583E4F00680D4F5
:011D0C0022B4
:105886007F40126DF47F077E00125093900873EEEE
:10589600F0A3EFF07F38126DF47F077E001250936D
:1058A600900875EEF0A3EFF07F39126DF47F077E56
:1058B60000125093900877EEF0A3EFF07F41126D3F
:1058C600F47F077E00125093900870EFF07F3A1233
:1058D6006DF47F077E00125093900879EEF0A3EFE7
:1058E600F07F3B126DF47F077E0012509390087B89
:1058F600EEF0A3EFF07F3C126DF47F077E001250AE
:105906009390087DEEF0A3EFF07F3D126DF47F07D4
:105916007E0012509390087FEEF0A3EFF07F3E12C8
:105926006DF47F077E00125093900881EEF0A3EF8E
:10593600F07F42126DF47F017E00125D7B9008714C
:10594600EFF07F3F126DF47F077E001250939008B0
:1059560083EEF0A3EFF0E4900885F0A3F0900872D0
:0A596600F090084AF0C234C2352266
:10747B00EF7018900000E06012300008900008E0F8
:10748B0030E00822900008E020E122900008E03074
:10749B00E00AD2009000607402F08008C2009000F5
:0E74AB00607404F01270481270971278042278
:0F7C0600EFC3940AEF50042430FF222437FF22EB
:107910008F72E572C4540FF571FF127C068F7112DD
:107920006AA0E572540FF571FF127C068F71026A2E
:01793000A0B6
:067C9800127910027C7954
:107B35008E738F74E573F575AF75127910E574F56D
:067B450075AF75027C988B
:0A7C79007F0A126AA07F0D026AA0C4
:106AA000756F088F70900022E04401F07F05900020
:106AB00020E054FEF0000000000000000000DFF5C0
:106AC000E57030E013900020E04401F07F04000006
:106AD00000000000DFF88013900020E054FEF07FFB
:106AE000040000000000000000DFF6E570C313F5AD
:106AF00070D56FCC900020E044017F04F0000000CE
:046B000000DFFA2296
:107AC000800DEF6010126AA0740129F9E43AFA12ED
:087AD0000F40FF80ED027C79FC
:107A5D00756F037570EB0000000000000000000062
:097A6D00D570F3D56FEDDFE822BE
:107A76007570050000000000000000000000000016
:097A8600000000D570EDDFE822DC
:0C7C5700E58954F04405F58943A8822219
:107BE500C28CC2098E398F3A758CFE758A0CD28C7F
:017BF500226D
:03000B0002793146
:10793100C0E0E53A45397006D209C28C8010E53ABB
:10794100153A70021539758CFE758A0CD28CD0E00F
:017951003203
:0B7C6E00300905C2097F01227F0022BF
:03001B000278A7C1
:1078A700C0E0C0F0C083C082C0D075D008900B4440
:1078B700E0FEA3E0AA0EF9121277D0D0D082D083CF
:0578C700D0F0D0E0321A
:106B65008B168A178918AB19AA1AA91B900003124C
:106B75000F59AB16AA17A918120F86AB19AA1AA98D
:106B85001B900002120F59AB16AA17A91890000105
:106B9500120F98AB19AA1AA91B900001120F59AB35
:106BA50016AA17A918900002120F98AB19AA1AA9CC
:106BB5001B120F40AB16AA17A918900003020F98D5
:10002E00025C026E000002A402AC02B502DE02F017
:10003E0002FB0304031203170000057A03200337A3
:10004E00034E0365032903400357036E0330034732
:10005E00035E0375037C0385038D039603A203B42D
:10006E0003C803CC03F20416042409360438055FD2
:10007E0005680583058C0595059E05A705B20556F1
:10008E00057105B005BB05CF02C201EC076B076F0A
:10009E0007730777076B076F07730777076708A55F
:1000AE00076903BD044204870883030B076808FA37
:1000BE0008F10902090B09170924092D33C533CBA1
:1000CE00336133CF31B132D931B933D0FF080100AA
:1000DE001E1E1E1E1E01011E1E1E1E1E01021E1EA5
:1000EE001E1E1E01031E1E1E1E1E0204031E1E1EAB
:1000FE001E0205041E1E1E1E0206041E1E1E1E02CB
:10010E0007041E1E1E1E0208041E1E1E1E020904C9
:10011E001E1E1E1E020A041E1E1E1E030B09041E98
:10012E001E1E030C09041E1E1E030D09041E1E1E98
:10013E00030E09041E1E1E030F09041E1E1E0410AC
:10014E000E09041E1E04110E09041E1E04120E09B1
:10015E00041E1E04130E09041E1E04140E09041E92
:10016E001E0515130E09041E0516130E09041E0591
:10017E0017130E09041E0518130E09041E05191374
:10018E000E09041E061A18130E0904061B18130E68
:10019E000904061C18130E0904061D18130E090473
:1001AE004544302E3031335F3038000902F90202F7
:1001BE00010080FA0F2401023D02820003020100B9
:1001CE000100001B2404010859555932000010008B
:0E01DE00800000AA00389B7110010000000094
:1074B900121FDD788EA60608A60778947C087D0140
:1074C9007BFF7A0179B97E007F09120F1A788FE65E
:1074D900900896F018E6A3F0900A1AE06006900862
:0D74E900987404F0304406900898E004F018
:0174F6002273
:104D15007516087517D478947C087D017BFF7A0198
:104D250079C27E007F0F120F1AE5172404F582E47D
:104D35003516F583E0F9700B851782851683A3A3D5
:104D4500E0600990089D7402F0E4800690089D7467
:104D550001F09009F2F0851782851683E0540A6008
:104D650074900894740FF09008977402F085178278
:104D7500851683A3A3A3E0FF851782851683A3E089
:104D85002FFFE433FE7C007D1A120FBAEF2441FD9C
:104D9500E43EFCE9FF851782851683A3A3E02FFF78
:104DA500E433FEEF7802C333CE33CED8F92DFFECD2
:104DB5003EFE90095AE02FF519900959E03EF51885
:104DC500E9600B74062519F519E43518F518E49012
:104DD50008A2F08055900894740EF090089774011D
:104DE500F0851782851683A3E075F01AA4241FFDAC
:104DF500E435F0FC851782851683A3A3E075F004DE
:104E0500A42DFFE5F03CFE90095AE02FF519900915
:104E150059E03EF518851782851683E030E00B745E
:104E2500102519F519E43518F518851782851683A7
:104E3500A3A3E0600B74062519F519E43518F518D8
:0A4E4500900898E519F0A3E518F0B5
:014E4F002240
:1077250078947C087D017BFF7A0179D17E007F1BEF
:10773500120F1A9008D4E05403900897600874015A
:10774500F09008D580067402F09008D7E09008986C
:02775500F02220
:1074F700900894740BF0A37424F0A37406F090081A
:10750700D4E0540C90089760087401F09008D58077
:10751700067402F09008D7E0900898F090089974E4
:0E75270001F0A3F0E4A3F0A3F0A3F0A3F02280
:107A8F009008947406F0A37424F0A3740DF0A374FB
:097A9F0001F0A3F0A37404F0222D
:1052B4009008957424F0A37403F0E4A3F0BF1F0ACC
:1052C4009008D4E05403600F80089008D4E0540C94
:1052D40060057516018003751602E516B401109079
:1052E40008D6E0F5169008D5E02405F51880169048
:1052F40008D8E0F5169008D5E02405FFA3E02FFFB9
:10530400A3E02FF51874D42518F582E43408AF828D
:10531400788EF608A607900898E516F025E025E0B3
:105324002406900894F0E4F516788EE6FC08E68CE2
:10533400832516F582E43583F583E0F517E5162514
:10534400E025E0F5187D01AF171269D58E198F1A83
:1053540074992518F582E43408F583E51AF0749AF3
:105364002518F582E43408F583E519F07D02AF17BA
:105374001269D58E198F1A749B2518F582E43408A6
:10538400F583E51AF0749C2518F582E43408F58356
:10539400E519F00516900898E0FFE516C39F4089CB
:1053A400900894E014F5162494F582E43408F58307
:0253B400E4F023
:0153B60022D4
:102D5300789BEFF69008957424F09009F2E09008C0
:102D630098F0EFD3941E50379008967405F0E6FE62
:102D730024F2A3F0EE24F67890F69008D4E05403FE
:102D83007008A3E026FFA3E02FF67890E624D4F59D
:102D930082E43408F583E0FF788EF67D0180379076
:102DA30008967407F0789BE6FE24DFA3F0EE24E395
:102DB3007890F69008D4E0540C7008A3E026FFA3A3
:102DC300E02FF67890E624D4F582E43408F583E026
:102DD300FF788EF67D02123A01788FA6071269CF2B
:102DE3007899A60608A607788EE6FF7D021269D5B4
:102DF300E4FCFD789112122D7899E6FE08E6FFE4D3
:102E0300FCFD78911212201210B7789112122D78CE
:102E13009BE6D3941E789150081211F8E47B02804C
:102E2300061211F8E47B03FAF9F81210B77891123D
:102E3300122D90099BE0FF7890F625E025E0241AF7
:102E4300900894F0751900751A00751B917B017A2F
:102E53000879A5126B65788FE62401FFE433FEE45D
:102E6300FCFD78911212201210B7789512122D786A
:102E7300951211F878031211E5789512122D751930
:102E830000751A00751B957B017A0879A1126B6591
:102E93007890E6249BF582E43409F583E02401FF6E
:102EA300E433FEE4FCFD081212201210B7789112ED
:102EB300122D78911211F878031211E578911212FC
:102EC3002D751900751A00751B917B017A08799D80
:102ED300126B651269CF7899A60608A607E69008D3
:102EE30099F018E6A3F0788EE6FF7D021269D57893
:102EF30099A60608A607E690089BF018E6A3F090AB
:102F0300099CE0FF127BD3EF75F004A4247BF974D2
:102F13000735F07519FFF51A891B7B017A0879A922
:102F2300126B657890E69008ADF0E4788EF6788EB3
:102F3300E6FFC37890965047749C2FF582E43409DA
:102F4300F583E0FF127BD375F004EF90077B121239
:102F530045121210789112122D788EE675F004A4A2
:102F630024AEF9740835F0FA7B01C0031B8B197585
:0F2F73001A00751B91D003126B65788E0680AF24
:012F8200222C
:104816007517087518D4751909751A19051AE51A40
:10482600AC197002051914F5828C83740DF0851885
:1048360082851783E0540360047F0E80027F210582
:104846001AE51AAC197002051914F5828C83EFF07B
:10485600E4FE851882851783A3E0FDEEC39D5018FC
:10486600EF042EFD051AE51AAA197002051914F5AA
:10487600828A83EDF00E80DA9008D6E0D394004069
:1048860029BF0E14051AE51AAC197002051914F59C
:10489600828C83741FF08012051AE51AAC19700217
:1048A600051914F5828C837432F0051AE51AAC19D1
:1048B6007002051914F5828C837420F085188285A0
:1048C6001783E0540A7003024958BF0E047F218003
:1048D600027F0E051AE51AAC197002051914F58245
:1048E6008C83EFF0E4FE851882851783A3A3A3E0EB
:1048F600FDEEC39D5018EF042EFD051AE51AAA1900
:104906007002051914F5828A83EDF00E80D890089E
:10491600D8E0D394004029BF0E14051AE51AAC1945
:104926007002051914F5828C83741FF08012051A23
:10493600E51AAC197002051914F5828C837432F0ED
:10494600051AE51AAC197002051914F5828C8374E0
:0B49560020F0851A8285198374FFF0A1
:014961002233
:106E4E008F15E515C3940F4007E515D3941E400E1C
:106E5E00E515C39422400CE515D394315005AF15BA
:106E6E00022D53E5151212516E92016E92026E951D
:106E7E000D6E980E6E9B1F6EA0206EA3216E9B3220
:106E8E0000006EA60274B9024D15027725AF1502E9
:096E9E0052B4027A8F1274F7223B
:1035F3008F57C208E557702120410A3042077535BD
:10360300027536802230410A20420775350275362D
:103613006E2275350275365C22E557640C70030221
:1036230037FBE557C394034014E557D3940B500D70
:10363300E55725E0242EF582E434008019E557C3CD
:103643009433401EE557D394545017E55725E0248F
:10365300E4F582E434FFF583E493F535740193F5DF
:103663003622E557B4550775350575367122E5578A
:10367300C394564048E557D3946B5041E55725E032
:1036830024E4F582E434FFF583E493F53574019380
:10369300F536E557B46402C20DE557B46709304106
:1036A300067535047536CCE557646860030237FB4D
:1036B3002041030237FB75350575361122E557C3E3
:1036C300946C4066E557D39475505FE557121251D9
:1036D30036F56C36FA6D36FF6E37046F370970377F
:1036E3000E71371372371873371D74372275000044
:1036F30037FB900AE1802B900AE38026900AE5804D
:1037030021900AE7801C900AE98017900AEB801247
:10371300900AED800D900AEF8008900AF1800390E3
:103723000AF3E0F535A3E0F53622E557C394764076
:103733000AE557D3947B50030237FBE557C3947CC8
:10374300403AE5579483503475F002E55790FFC42F
:10375300121245E493F535740193F536E557647F0A
:1037630060030237FB2000030237FB900A1DE020B1
:10377300E7030237FB7535087536E522E5576483A1
:103783006076E557C39484402BE557D3948B50243C
:1037930075F002E55790FFC2121245E493F53574B4
:1037A3000193F536E557B48502C243E55764877044
:1037B30047C23F22E557C3948C402674742557F5BE
:1037C30057755500F556E55625E0F556E55533F59D
:1037D30055900890E0FEA3E02556F556EE3555F5D5
:1037E30055E42556F55674803555F555AF56FE12FA
:0837F30075728E358F36D20885
:0137FB0022AB
:106DF400E478A6F678A8A607C208300B1AE6FF9036
:106E04000844E02FFF900843E03400CF2400F55AF3
:106E1400EF3480F559801078A8E624ECF582E43448
:106E240001AF82F5598F5A78A8E624EB600824EC68
:106E3400600424287007855935855A3622AF5AAE26
:096E4400591276568F581235F3ED
:016E4D002222
:10737C00D20D7F46126DF4300D36E4FFFE125D7BAC
:10738C008F18E51825E025E0F518E4F517E517C387
:10739C009518501CE5172401FFE433FE125D7B7435
:1073AC005B2517F582E43409F583EFF0051780DDD2
:0173BC0022AE
:107048003000047F3680027F37126DF475150175A4
:107058001605AF157E00125D7BEF2516F516051592
:10706800E515C3940540EBE4F515E515C3951650F1
:1070780018AF157E00125D7B74D42515F582E434B3
:0F70880008F583EFF0051580E112737C024816BE
:0D001E0074942FF582E43408F583E0FF228E
:10765600900A3CEEF0A3EFF0C3EE94804018900041
:1076660027E020E411126EA7900A3CE0FEA3E0F5A5
:10767600828E83E0FF22900A3CE0FEA3E0F5828E34
:0576860083E493FF22E4
:10757200900A3CEEF0A3EFF0C3EE9480401B900023
:1075820027E020E414126EA7900A3CE0FEA3E0F587
:10759200828E83E0FEA3E0FF22900A3CE0FEA3E09D
:0C75A200F5828E83E493FE740193FF22B7
:10629000900849E075F040A4FFAEF0900A0FE02F9F
:0C62A000F538900A0EE03EF537AF38FEEE
:1062AC00E478A6F678A9A60608A607E553600A12B4
:1062BC006EA778A6A653E4F553E478A7F6900501EB
:1062CC007440F0A3E4F09005007403F078A9E6FEA6
:1062DC0008E6FF7B017A0979A37D2012721578AA52
:1062EC00E62420FF18E436FE7B017A0979C37D2071
:1062FC00127215900503E0FF9009E2E06F601078D0
:10630C00A7E6C3940350030680B3E4F537F5387859
:06631C00A6E66002F55345
:016322002258
:085D730078A47620E6FF7E0013
:105D7B008E5E8F5FE536255FF55FE535355EF55E4B
:105D8B00200809AF5FFE1276568F60222004269002
:105D9B000A0EE0FEA3E0FFC3E55F9FFFE55E9EFEFC
:105DAB007C007D3F120FCC900849EFF0255FF55F2B
:105DBB00E4355EF55EE5384537601DE538243FFF79
:105DCB00E43537FED3E55F9FE55E9E500BC3E55F81
:105DDB009538E55E9537503430042E855E37855FF8
:105DEB0038126EA77B017A0979A37D20AF38AE37C5
:105DFB0012643FE5382420FFE43537FE7B017A0936
:105E0B0079C37D2012643F8003126290C3E55F95D6
:105E1B0038F55D24A3F582E43409F583E0F560FFE2
:015E2B002254
:105093008E5E8F5FE536255FF55FE535355EF55E40
:1050A30020080BAF5FFE1275728E5B8F5C222004AB
:1050B30026900A0EE0FEA3E0FFC3E55F9FFFE55ED7
:1050C3009EFE7C007D3F120FCC900849EFF0255FD8
:1050D300F55FE4355EF55EE5384537601DE5382458
:1050E3003EFFE43537FED3E55F9FE55E9E500BC37D
:1050F300E55F9538E55E9537503430042E855E378D
:10510300855F38126EA77B017A0979A37D20AF38BA
:10511300AE3712643FE5382420FFE43537FE7B01C8
:105123007A0979C37D2012643F8003126290C3E53C
:105133005F9538F55D643E705874A3255DF582E490
:105143003409F583E0755C00F55B74402538F53868
:10515300E43537F5373004247B017A0979A37D20C0
:10516300AF38FE12643FE5382420FFE43537FE7B79
:10517300017A0979C37D2012643F8007AF38AE37C7
:105183001262AC9009A3E0FDE55BF55BEDF55C8095
:105193001274A3255DF582E43409F583E0F55BA37E
:0851A300E0F55CAE5BAF5C229D
:101FDD00789076080876D4E47894F608F67890E64A
:101FED00FE08E6F5828E83E0540A70030220BAE4FF
:101FFD0008F608F67893E6184678907011E6FE0814
:10200D00E6F5828E83A3E07896F624058029E6FE18
:10201D0008E6FFF5828E83A3A3A3E0FD7896F68FE5
:10202D00828E83A3E02405FF7890E6FA08E6F58218
:10203D008A83A3A3E02F2D7899F67896E6605578DC
:10204D0099E624D3F582E43408F583E07897F678A1
:10205D0090E6FE08E6F5828E83E030E1117893E696
:10206D00184678987004760180137602800F789365
:10207D00E61846789870047602800276011239FAD5
:10208D0090099BE0789526F618E436F67896167842
:10209D00991680A6789306E618700106C37893E624
:1020AD00940218E69400500302200180567890E6C1
:1020BD00FE08E6F5828E83A3E07896F624057899DE
:1020CD00F67896E6603D7899E624D3F582E43408F7
:1020DD00F583E07897F67890E6FE08E6F5828E8334
:1020ED00E0789830E0047601800276021239FA9099
:1020FD00099BE0789526F618E436F67896167899C9
:10210D001680BE7894E6FE08E67802C333CE33CE51
:10211D00D8F9FF7894EEF608EFF6900959EEF0A392
:10212D00EFF07890E6FE08E6F5828E83E0F9540A2A
:10213D00607918E6FC08E6FDF5828C83A3A3E075B3
:10214D00F004A4FBAAF08D828C83A3E075F01AA491
:10215D002BFDE5F03AFC18E6FA08E6FBF5828A83DA
:10216D00A3A3A3E075F01AA42DFDE5F03CFC8B8232
:10217D008A83E5822404F582E43583F583E0FB75DB
:10218D00F004A42DFFE5F03CCF240BCF3401FEEF7E
:10219D00789526FFEE18367892F608A607EB70565E
:1021AD0074FA26F61874FF36F6804B7890E6FC0824
:1021BD00E6FDF5828C83A3A3E075F004A4FBAAF0E1
:1021CD008D828C83A3E075F01AA42BFFE5F03ACF36
:1021DD0024D8CF3400FEEF789526FFEE183678928E
:1021ED00F608A607E930E004741B80047893740B9D
:1021FD0026F618E436F67890E6FE08E6F5828E832C
:10220D00A3A3E0700B789374FA26F61874FF36F6D4
:10221D00300046900A1AE0602F900A1EE0FD540F20
:10222D0075F003A42428FFE435F0FEEDC4540F7CB3
:10223D0000540FFD120FBA7893E62445FD18E436CD
:10224D00CD2F08F6ED3E18F6900A17E0FEA3E0FF3D
:10225D004E60308F828E838020900A1AE0600A785B
:10226D0093747326F618E436F6900A17E0FEA3E091
:10227D00FF4E600F8F828E83A3A3E0789326F6180E
:10228D00E436F630440A7893741926F618E436F6D7
:07229D007892E6FE08E6FF5F
:0122A4002217
:103DA800EF6003023ED4900802E0900889F0900882
:103DB80003E0FF90088AF0900804E0F517A3E0F507
:103DC80016A3E0F515A3E0F514EF2404F518900800
:103DD80089E06401600C9008D5E02518FFA3E02F66
:103DE800F51874D42518F582E43408F583E0F51243
:103DF80090088BF07D01FF1269D58E198F1A8519ED
:103E08003C851A3D7D02AF121269D58E198F1A852D
:103E1800193E851A3F9008D4E05403600B90088936
:103E2800E0B40102800E8007900889E0B4010575AE
:103E38003B028003753B01E53BB401047D01800230
:103E48007D02AF12123A018F1390099BE0F5188595
:103E58001812E512D39400403F749B2512F582E4B2
:103E68003409F583E0FF127BD375F004EF90077BEC
:103E7800121245121210AB17AA16A915A814C312CC
:103E880011D44010749B2512F582E43409F583E0BF
:103E9800F5128004151280BA90088CE06512602231
:103EA800AF12127BD375F004EF90077B1212451204
:103EB8001210E47BE87A03F9F8121142900A121200
:103EC800123990088CE512F004F54022900800E0C1
:103ED80090088DF0900801E0FF90088EF09008D5CA
:103EE800E02F2404F51890088DE06401600C900818
:103EF800D6E02518FFA3E02FF51874D42518F5820D
:103F0800E43408F583E0F51290088FF07D01FF1284
:103F180069D58E198F1A851942851A437D02AF1209
:103F28001269D58E198F1A851944851A459008D4B7
:103F3800E05403600B90088DE0B40102800D800707
:0E3F480090088DE0B40104754102227541011C
:013F56002248
:107097009008897401F0A3F09008D9E0FF90088B5D
:1070A700F09008D4E0540360047D0180027D021251
:1070B7003A01EFD3940090088C4004EFF0800374FA
:1070C70001F090088D7401F0A3F09008D5E0240535
:0E70D70024D4F582E43408F583E090088FF0AD
:0170E5002288
:0739FA007897E6FF08E6FDE7
:103A010078ABA60708EDF6E4789DF6BD01027601D4
:103A1100789EA63508A6367F4D126DF430001B78CE
:103A21009DE678ABB40106E678A4F68006E624109C
:103A310079A4F778A4E6FF023B1B78AB1269D17831
:103A41009CA60778ABE6FF7D021269D5E4FCFD7800
:103A5100A012122D789CE6FFE4FCFDFE78A0121264
:103A6100201210B778A012122D125D7378A5A60747
:103A7100E4789CF608E66401704878A5E67038FFA2
:103A81007E8C7D01FC78A0121220D31211D4400348
:103A9100023B247F507E707D017C0078A0121220B1
:103AA100C31211D45002805178A01212207F0C7ED3
:103AB100CE7D077C00805579ABE778A42604FFF61C
:103AC100805878A4E6040826FF18F67E00125D7B74
:103AD10078A5EFF6703BFFFE7D14FC78A012122052
:103AE100D31211D4503D7FBA7E0F7D217C0078A086
:103AF100121220C31211D45006789C761E802478AD
:103B0100A01212207F407ED27DDF7C031211428001
:103B11000E79ABE778A42604FFF67E00125D7B7870
:103B21009CA607789CE630E770125D7378A5EFF6E6
:103B310018E6042FFFF67E00125D7B78A5EFF618DC
:103B4100E6042F08F6789CE6547F78A4F675F00613
:103B5100A40826F6E490099BF018F678A4E6FFC3C2
:103B61009406502C08E62FFFE433FE125D7B78AB00
:103B7100EFF6601CE614FF78A4E6249CF582E43499
:103B810009F583EFF090099BE004F078A40680CB5F
:103B910090099CE0789CF68032789CE6FFD39400F3
:103BA100400BEFD3941E4002761E789C16789CE65B
:103BB10075F007A424DCF9740035F0FA7BFF789BDB
:103BC1007C097D017E007F07120F1A789EE6F5358C
:083BD10008E6F536789CE6FFDA
:013BD90022C9
:107BD300EFD3943B400BEF24BB75F00A84243CFFA6
:027BE30022225C
:0669CF00788EE6FF7D0159
:1069D500200D27EFBD010D25E025E024A5F582E476
:1069E5003408800B25E025E024A7F582E43408F57A
:1069F50083E493FA740193FB803478A676090876CC
:106A05005BBD011218E6FC08E6F5828C8375F0047F
:106A1500EF121245801378A6E6FC08E6F5828C8312
:106A250075F004EF121245A3A3E0FAA3E0FBAF0350
:026A3500AE02AF
:016A3700223C
:107804003000047F0680027F1A126DF47F0E7E0022
:10781400125D7BEFC39403400E7F117E00125D7BEB
:09782400EF30E203D20F22C20F83
:01782D002238
:0456A1008C108D11CB
:1056A500900A17E0FCA3E0FD4C70030257948D822D
:1056B5008C83E0FE0EEED394044003025794900AC7
:1056C50017E0FCA3E0F5828C83EEF0EF640960112E
:1056D500EF6401600CEFC39437401CEFD3943A504C
:1056E50016851182851083E493FD900A17E0FAA3CD
:1056F500E0F5828A83804BEF646A6011EF64026093
:105705000CEFC3943B401DEFD3943E501785118297
:10571500851083E493FD900A17E0FAA3E0F5828AE9
:1057250083A3801E851182851083E493FD900A175B
:10573500E0FAA3E0FBF5828A83A3E02DF08B828A51
:1057450083A3A3E02DF0900A17E0FCA3E0FDF5820A
:105755008C8375F004EE121245E58224FFF582E58F
:105765008334FFF583EFF08D828C8375F004EE12A0
:105775001245E510F0A3E511F0900A17E0FCA3E04F
:0F578500F5828C8375F004EE121245A3A3E4F0B5
:0157940022F2
:1051AB00900801E0F511A3E0F512900800E0FF5420
:1051BB001FF513EF30E703025263E52EB40612AF6F
:1051CB00137E00E42512FDE43511FAA9057B01805D
:1051DB0026E52E6408702B900800E0AF137E00309C
:1051EB00E60EE42512FDE43511FAA9057BFF8007D5
:1051FB00E512F97A007B00784B7C087D01120F1ABF
:10520B008052E512B4FF0BE511B4FF06E5136404FD
:10521B006022127B4B7B017A08794B900B36E0FEB8
:10522B00A3E0F5828E83AD13AF12AE1112127B1277
:10523B007BC18020900B0BE090084BF0900B0AE0A9
:10524B0090084CF0900B09E090084DF0900B08E0A3
:10525B0090084EF085132B22E52EB40612AF137E69
:10526B0000E42512FDE43511A805FC7D018010E555
:10527B002EB40814AF137E00E512F87C007D007B82
:10528B00017A087903020F1A127B4B7B017A08799A
:10529B0003900B38E0FEA3E0F5828E83AD13AF12C3
:0852AB00AE1112127B127BC14F
:0152B30022D8
:067AD8007DAA7455FFFEBB
:107ADE008E148F15900032E515F0A3E514F0A3ED8A
:027AEE00F02284
:105A5900900800E020E74F20E64CA3E0F512A3E010
:105A6900F5139000307411F0A3E054EFF0E4F51150
:105A7900900800E0541FFFE511C39F5026900032A3
:105A8900E513F0A3E512F0A3E0FE744B2511F582AE
:105A9900E43408F583EEF005110513E51370D1051B
:105AA9001280CD8F2B22900800E030E63190003033
:105AB9007411F0A314F0127AD87D557FAA7E2A12A8
:105AC9007ADE7D80127ADA7DAA127ADE7D557FAA86
:105AD9007E2A127ADE7D107455FFFE027ADE900866
:105AE90001E0F512A3E0F5139000307411F0A3144E
:105AF900F0E4F511900800E0541FFFE511C39F5031
:105B090036127AD87D557FAA7E2A127ADE7DA012B6
:105B19007ADA74032511F582E43408F583E0FDAFE0
:105B290013AE12127ADE7F02127A7605110513E599
:075B39001370C1051280BDCD
:015B40002242
:107B8800AF2B7E0078837C007D017B017A08794BDE
:037B9800020F1ABF
:1067AE00900800E0B4F803027C8C900800E0B4F48A
:1067BE0003027CB3900800E0FF20E722A3E0F5116E
:1067CE00A3E0F512EF541FFD7B017A08794BAF124F
:1067DE00AE1112643F900800E0541FF52B22900872
:1067EE0000E0B4A00302782E900800E0B4C00302CB
:1067FE007952900801E0F511A3E0F512900800E03F
:10680E00541FFD7B017A087903AF12AE111272602C
:01681E002257
:105F8300900801E0F512A3E0F513900800E0FF5438
:105F93001FF511EF30E608300A6212743D805D9000
:105FA3000800E030E75DE511F582758300E52A75A9
:105FB300F008A4244BF9740835F0A801FC7D017B9B
:105FC300017A0879037E00AF82120F1A900800E06D
:105FD30030E52DE511C39408E52A500A75F008A4AD
:105FE3002511F51180070475F008A4F5117B017ADA
:105FF30008794BAD11AF13AE12123F5FE4F52A22BD
